:020000040800F2
:10000000000003208D030008DD030008DD03000865
:10001000DD030008DD030008DD0300080000000028
:10002000000000000000000000000000DD030008E8
:10003000DD03000800000000DD030008DD03000808
:10004000DD030008DD030008DD030008DD03000810
:10005000DD030008DD030008DD030008DD03000800
:10006000DD030008DD030008DD030008DD030008F0
:10007000DD030008DD030008DD030008DD030008E0
:10008000DD030008DD030008DD030008DD030008D0
:10009000DD030008DD030008DD030008DD030008C0
:1000A000DD030008DD030008DD030008DD030008B0
:1000B000DD030008DD030008DD030008DD030008A0
:1000C000DD030008DD030008DD030008DD03000890
:1000D000DD030008DD030008DD030008DD03000880
:1000E000DD030008DD030008DD030008DD03000870
:1000F000DD030008DD030008DD030008DD03000860
:10010000DD030008DD030008DD030008DD0300084F
:10011000DD030008DD030008DD030008DD0300083F
:10012000DD030008DD030008DD030008DD0300082F
:10013000DD030008DD030008DD030008DD0300081F
:10014000DD030008DD030008DD030008DD0300080F
:10015000DD030008DD030008DD030008DD030008FF
:10016000DD030008DD030008DD030008DD030008EF
:10017000DD030008DD030008DD03000800000000C7
:10018000DD030008DD030008DD030008DD030008CF
:10019000DD030008DD030008DD030008DD030008BF
:0C01A000DD030008DD030008DD0300089B
:1001AC0010B5054C237833B9044B13B10448AFF3A5
:1001BC0000800123237010BD04000020000000000B
:1001CC002804000808B5034B1BB103490348AFF3DF
:1001DC00008008BD00000000080000202804000872
:1001EC00034AD2F8883043F47003C2F88830704761
:1001FC0000ED00E05C4AD2F8303843F00603C2F858
:10020C0030385A4BD3F8002442F48031C3F8001430
:10021C0042F48231C3F8001442F0807242F482320C
:10022C00C3F80024D3F8042422F48071C3F8041416
:10023C0022F49071C3F8041422F48952C3F80424F4
:10024C00D3F8082442F48031C3F8081442F4823104
:10025C00C3F8081442F0807242F48232C3F80824C6
:10026C00D3F80C2422F44031C3F80C1422F443319B
:10027C00C3F80C1422F0407222F44332C3F80C245D
:10028C00D3F8001821F44042C3F80028D3F80C2806
:10029C0042F48040C3F80C0821F47041C3F80018F4
:1002AC0042F4A042C3F80C2828E082BB3048017805
:1002BC0081F0010101702F490020087027E0012A0C
:1002CC0007D0022A3AD129494FF48050C1F81804BA
:1002DC0034E026492020C1F818042FE0254A127872
:1002EC00002A31D121494FF08070C1F81804022A3C
:1002FC0002D801321F490A701F4A13701B4BD3F8E6
:10030C001038C3F380121D4909780129CDD01B493F
:10031C000A70C3F3C013184A1278012AECD1002BCF
:10032C00EAD1134A1278002AD8D1124A1278002A3C
:10033C00C5D10E494FF48070C1F81804022ADBD8DD
:10034C0001320C490A70D7E7012A07D0022ACED114
:10035C0006494FF08050C1F81804C8E703494FF420
:10036C000010C1F81804C2E700300240000002403F
:10037C0021000020200000200100002000000020AF
:10038C00DFF834D00D480E490E4A002302E0D45851
:10039C00C4500433C4188C42F9D30B4A0B4C0023C1
:1003AC0001E013600432A242FBD3FFF719FF00F007
:1003BC0011F8FFF71FFF704700000320000000201A
:1003CC000400002048040008040000202400002041
:1003DC00FEE7000070B50D4D0D4C641BA4100026FB
:1003EC00A64209D10B4D0C4C00F018F8641BA4105C
:1003FC000026A64205D170BD55F8043B984701363E
:10040C00EEE755F8043B98470136F2E74004000844
:10041C00400400084004000844040008F8B500BF7C
:10042C00F8BC08BC9E467047F8B500BFF8BC08BCC9
:04043C009E46704721
:04044000D1010008DE
:04044400AD010008FE
:0404480001010000AE
:040000050800038D5F
:00000001FF
